00:01:02:03:04:05 > 33:33:00:01:00:02, ethertype IPv6 (0x86dd), length 110: 
	0x0000:  6c00 0000 0038 1140 fe80 0000 0000 0000  l....8.@........
	0x0010:  0201 02ff fe03 0405 ff02 0000 0000 0000  ................
	0x0020:  0000 0000 0001 0002 0222 0223 0038 e484  .........".#.8..
	0x0030:  01e1 e093 0001 000a 0003 0001 0001 0203  ................
	0x0040:  0405 0006 0004 0017 0018 0008 0002 0000  ................
	0x0050:  0019 000c 0203 0405 0000 0e10 0000 1518  ................
00:11:22:33:44:55 > 00:01:02:03:04:05, ethertype IPv6 (0x86dd), length 143: 
	0x0000:  6000 0000 0059 1140 fe80 0000 0000 0000  `....Y.@........
	0x0010:  0211 22ff fe33 4455 fe80 0000 0000 0000  .."..3DU........
	0x0020:  0201 02ff fe03 0405 0223 0222 0059 778b  .........#.".Yw.
	0x0030:  02e1 e093 0019 0029 0203 0405 0000 0e10  .......)........
	0x0040:  0000 1518 001a 0019 0000 1194 0000 1c20  ................
	0x0050:  382a 0000 0100 0101 0000 0000 0000 0000  8*..............
	0x0060:  0000 0100 0a00 0300 0100 0102 0304 0500  ................
	0x0070:  0200 0e00 0100 0118 4649 9900 1122 3344  ........FI..."3D
	0x0080:  55                                       U
00:01:02:03:04:05 > 33:33:00:01:00:02, ethertype IPv6 (0x86dd), length 157: 
	0x0000:  6c00 0000 0067 1140 fe80 0000 0000 0000  l....g.@........
	0x0010:  0201 02ff fe03 0405 ff02 0000 0000 0000  ................
	0x0020:  0000 0000 0001 0002 0222 0223 0067 d68c  .........".#.g..
	0x0030:  0312 b08a 0001 000a 0003 0001 0001 0203  ................
	0x0040:  0405 0002 000e 0001 0001 1846 4999 0011  ...........FI...
	0x0050:  2233 4455 0006 0004 0017 0018 0008 0002  "3DU............
	0x0060:  0000 0019 0029 0203 0405 0000 0e10 0000  .....)..........
	0x0070:  1518 001a 0019 0000 1c20 0000 1d4c 382a  .............L8*
	0x0080:  0000 0100 0101 0000 0000 0000 0000 00    ...............
00:11:22:33:44:55 > 00:01:02:03:04:05, ethertype IPv6 (0x86dd), length 143: 
	0x0000:  6000 0000 0059 1140 fe80 0000 0000 0000  `....Y.@........
	0x0010:  0211 22ff fe33 4455 fe80 0000 0000 0000  .."..3DU........
	0x0020:  0201 02ff fe03 0405 0223 0222 0059 a363  .........#.".Y.c
	0x0030:  0712 b08a 0019 0029 0203 0405 0000 0e10  .......)........
	0x0040:  0000 1518 001a 0019 0000 1194 0000 1c20  ................
	0x0050:  382a 0000 0100 0101 0000 0000 0000 0000  8*..............
	0x0060:  0000 0100 0a00 0300 0100 0102 0304 0500  ................
	0x0070:  0200 0e00 0100 0118 4649 9900 1122 3344  ........FI..."3D
	0x0080:  55                                       U
