IP (tos 0xc0, ttl 64, id 22725, offset 0, flags [DF], proto TCP (6), length 142)
    30.0.0.1.49038 > 30.0.0.2.179: Flags [P.], cksum 0xd6dc (correct), seq 1284816775:1284816865, ack 1288709908, win 29, options [nop,nop,TS val 184150022 ecr 184150021], length 90: BGP, length: 90
	Update Message (2), length: 90
	  Origin (1), length: 1, Flags [T]: Incomplete
	  AS Path (2), length: 4, Flags [T]: 1 
	  Next Hop (3), length: 4, Flags [T]: 0.0.0.0
	  Multi-Protocol Reach NLRI (14), length: 46, Flags [O]: 
	    AFI: IPv6 (2), SAFI: Unicast (1)
	    no AFI 2 / SAFI 1 decoder
	    0x0000:  0002 0120 dead beef 0000 0000 0000 0000
	    0x0010:  0000 0001 fe80 0000 0000 0000 0000 01ff
	    0x0020:  fe01 0000 0040 0004 0005 0000 0000
