02:02:c0:a8:64:50 > ff:ff:ff:ff:ff:ff, ethertype Unknown (0x886f), length 1510: 
	0x0000:  bf01 dec0 0602 0000 0200 0000 c0a8 6450  ..............dP
	0x0010:  c0a8 6452 0100 0000 0100 0900 35e3 3b4f  ..dR........5.;O
	0x0020:  bbce c804 0000 0000 0000 0000 1990 0161  ...............a
	0x0030:  5000 0561 8770 0861 8ff0 0861 bbb1 1b61  P..a.p.a...a...a
	0x0040:  4bb2 2461 e113 3e61 00f4 ff6f 0000 0000  K.$a..>a...o....
	0x0050:  0000                                     ..
02:01:c0:a8:64:50 > ff:ff:ff:ff:ff:ff, ethertype Unknown (0x886f), length 1510: 
	0x0000:  bf01 dec0 0602 0000 0100 0000 c0a8 6450  ..............dP
	0x0010:  c0a8 6451 0000 0000 0100 0900 dfe2 3b4f  ..dQ..........;O
	0x0020:  a714 6502 0000 0000 0000 0000 1990 0161  ..e............a
	0x0030:  5000 0561 8770 0861 8ff0 0861 bbb1 1b61  P..a.p.a...a...a
	0x0040:  4bb2 2461 e113 3e61 00f4 ff6f 0000 0000  K.$a..>a...o....
	0x0050:  0000                                     ..
